:100000000C94F1040C9438050C9438050C943805C4
:100010000C9438050C9438050C9438050C9438056C
:100020000C9438050C9438050C9493290C94652A8B
:100030000C94D71F0C9438050C9438050C94380593
:100040000C9438050C9438050C9438050C9438053C
:100050000C9438050C943F200C9438050C9438050A
:100060000C9438050C9438050C9438050C9438051C
:100070000C9438050C9438050C9438050C9438050C
:100080000C9438050C9438050C9438050C943805FC
:100090000C9438050C9438050C9438050C943805EC
:1000A0000C9438050C9438050C9438052007250766
:1000B0002F07230728072D072B07A307A507B0073E
:1000C000A707A907AB07AD07AF07B207B407B60785
:1000D000C107B807BA07BC07BE07C007C307651644
:1000E00065169F169F16D416F4161F185B18FF1678
:1000F0005B18AF17AF1717185B185B185618BC17AB
:10010000BC17BC17BC17BC17BC17BC17BC17BC1757
:10011000BC17BC17BC17BC17BC17BC17BC17CE1735
:10012000DB17E217E917F317D618D618E818E818FE
:10013000DF18E818E818E818D618D618E418E818F0
:10014000E818E418D22AF42AE22BF42AE22B392BFD
:100150005C2BE22BB12BC42B6572676F646F782F19
:100160006572676F646F785F657A5F6135323232CE
:100170003464303664643633613731346663652005
:100180004020302E352E32392D31332D67383462F0
:10019000326638006572676F646F782F6572676FBB
:1001A000646F785F657A5F6135323232346430363D
:1001B0006464363361373134666365204020302E05
:1001C000352E32392D31332D67383462326638009E
:1001D0000000F0A135002E003C5C2D020251000011
:1001E00024003300040034000100E3002200360044
:1001F0001200140001002B002000370008000D0041
:1002000001002A001E00130018000E000100E0008B
:1002100026001C000C001B0000004C000100010027
:1002200000002F000000E20001000100000030008B
:100230000000390027000900070005000000290020
:100240001F000A000B00100003514B0021000600A4
:1002500017001A0004512C0023001500110019008A
:100260000100280025000F0016001D0011504E004F
:1002700031002D003D5C3800025100002E004C0082
:100280002A00E100350000001E00140004001D617A
:1002900034004D001F001A0016001B0001002A0048
:1002A000200008000700060050002C002100150067
:1002B000090019004F004A00220017000A0005003B
:1002C0000000656401000100000001000000E3007F
:1002D00001000100000001000000105023001C007C
:1002E0000B00110000002961240018000D0010000F
:1002F00052004B0025000C000E0036005100280073
:10030000260012000F0037002F002B0027001300DB
:100310003343386130004E002D0031003468E10075
:1003200001000000010001000100010001000000C7
:100330003A0001002E020100010001003B00010013
:1003400024022302010001003C00200225022202B7
:10035000010001003D001F021E02210201000100F8
:100360003E00010031020100000001003F000100D9
:100370000000010000000100400001000000010039
:100380000000010041005200510001000000010086
:1003900042005F005C005900A900010043006000BA
:1003A0005D005A0063000100440061005E005B00D4
:1003B0006200010045005500570054002E00010066
:1003C0000100010001000100010000000100010026
:1003D000010001000100000001000100FB0001001C
:1003E0000100F6000100F900F20001000100F50033
:1003F0000100F000F10001000100F4000100FA002A
:10040000F30001000100010001000100FC000100F7
:1004100000000100010001000000010000000100D7
:1004200001000100000001000000010001000100C6
:1004300001000100000001000100010001000100B5
:100440000100010001000100010001000100FE00A7
:1004500001000100010001000100FD000100010098
:10046000010001000100FF00010001000100010086
:100470000100000001000100010001000100000076
:100480000100010001000100010001000100010064
:100490005000010001000100010052005100010064
:1004A00001000100010001004F00010001000100F6
:1004B0000100010001000100000001000100010035
:1004C0000000010000000100010001000000010027
:1004D0000000010001000100010001000000010016
:1004E0000100010001000100010001000100010004
:1004F00001000100010001000100010001000100F4
:1005000001000100010001000100010001000100E3
:1005100001000100010001000100000000000000D6
:10052000000000002A2B280000000000000000004E
:100530000000000000000029000000002C1E3420F4
:10054000212224342627252E362D3738271E1F201A
:100550002122232425263333362E37381F0405065F
:100560000708090A0B0C0D0E0F10111213141516A3
:100570001718191A1B1C1D2F3130232D35040506A1
:100580000708090A0B0C0D0E0F1011121314151683
:100590001718191A1B1C1D2F3130354C0000000094
:1005A000000000000000000000000000000000004B
:1005B0000000000000000000000000000001010138
:1005C0000101010001010101000000000000000024
:1005D0000000000000000100010001010101010113
:1005E00001010101010101010101010101010101FB
:1005F00001010101010101000000010100000000F2
:1006000000000000000000000000000000000000EA
:100610000000000000000001010101006801F0007D
:10062000B40078005A00643214643214783C1E1E00
:10063000140A05000000000101010202030405057F
:100640000607090A0B0C0E0F1112141517191B1DA2
:100650001F212325282A2C2F313436393B3E414394
:1006600046494C4F5255585A5D6164676A6D7073C4
:1006700076797C7F8386898C8F9295989B9EA2A5A4
:10068000A7AAADB0B3B6B9BCBEC1C4C6C9CBCED0A3
:10069000D3D5D7DADCDEE0E2E4E6E8EAEBEDEEF033
:1006A000F1F3F4F5F6F8F9FAFAFBFCFDFDFEFEFEB7
:1006B000FFFFFFFFFFFFFFFEFEFEFDFDFCFBFAFA62
:1006C000F9F8F6F5F4F3F1F0EEEDEBEAE8E6E4E242
:1006D000E0DEDCDAD7D5D3D0CECBC9C6C4C1BEBC30
:1006E000B9B6B3B0ADAAA7A5A29E9B9895928F8CE0
:1006F000898683807C797673706D6A6764615D5AE0
:100700005855524F4C494643413E3B393634312FC0
:100710002C2A282523211F1D1B1917151412110F10
:100720000E0C0B0A0907060505040302020101016C
:1007300000000000000000000101010101010101B1
:100740000102020202020202020203030303030384
:100750000303040404040404050505050506060650
:10076000060607070707080808080909090A0A0A08
:100770000A0B0B0B0C0C0C0D0D0D0E0E0F0F0F10AA
:100780001011111112121313141415151616171730
:10079000181819191A1A1B1C1C1D1D1E1F1F20209A
:1007A0002122222324252526272728292A2B2B2CE2
:1007B0002D2E2F2F30313233343536363738393A03
:1007C0003B3C3D3E3F4041424344464748494A4BFB
:1007D0004C4D4F50515253555657585A5B5C5E5FC3
:1007E000606263646667696A6C6D6E70717374765B
:1007F00078797B7C7E8081838486888A8B8D8F91BB
:10080000929496989A9B9D9FA1A3A5A7A9ABADAFE3
:10081000B1B3B5B7B9BBBDBFC1C4C6C8CACCCFD1CF
:10082000D3D6D8DADCDFE1E4E6E8EBEDF0F2F5F779
:10083000FAFCFF16034500720067006F0044006F6A
:10084000007800200045005A0000001603450072A1
:100850000067006F0044006F007800200045005AD8
:100860000000000403090409026D00040100A0FA5D
:100870000904000001030101000921110100012206
:1008800040000705810308000A0904010001030173
:100890000200092111010001224D00070582030811
:1008A000000A0904020001030000000921110100EF
:1008B000012236000705830308000A09040300012A
:1008C00003000000092111010001223900070584FD
:1008D000032000011201100100000008EDFE0713C3
:1008E00001000102000105010906A101050719E047
:1008F00029E71500250195087501810205081901F0
:10090000290595057501910295017503910105076A
:10091000190029F71500250195F875018102C00518
:10092000010980A10185021601002603001A810039
:100930002A8300751095018100C0050C0901A101F1
:100940008503160100269C021A01002A9C027510DC
:1009500095018100C005010902A1010901A100055D
:1009600009190129051500250195057501810295D3
:1009700001750381010501093009311581257F9534
:10098000027508810609381581257F950175088152
:1009900006050C0A38021581257F95017508810628
:1009A000C0C005010906A101050719E029E71500E6
:1009B00025019508750181029501750881010508D9
:1009C000190129059505750191029501750391019C
:1009D0000507190029FF150026FF009506750881F7
:1009E00000C011241FBECFEFDAE0DEBFCDBF04B6DA
:1009F00003FE27C08091360390913703A0913803FE
:100A0000B09139038730904BA740B04BD1F410928E
:100A1000360310923703109238031092390314BE34
:100A200084B7877F84BF0FB6F894A8958091600043
:100A3000886180936000109260000FBEE0E0FFE3E9
:100A4000099511E0A0E0B1E0EEE7FBE502C00590FA
:100A50000D92AC3DB107D9F723E0ACEDB1E001C098
:100A60001D92A633B207E1F70E94C0260C94BD2D5B
:100A70000C9400001092B9008AE08093B8000895A9
:100A800094EA9093BC009091BC0097FFFCCF9091AA
:100A9000B900987F983021F0903111F081E00895ED
:100AA0008093BB0084E88093BC008091BC0087FFEA
:100AB000FCCF8091B900887F883111F0803471F7C4
:100AC00080E0089584E98093BC008091BC0084FD9F
:100AD000FCCF08958093BB0084E88093BC00809194
:100AE000BC0087FFFCCF9091B900987F81E09832DD
:100AF00009F480E0089584E88093BC008091BC00F4
:100B000087FFFCCF8091BB00089580B38C7080BBC1
:100B100081B3836F81BB089580910101811115C05C
:100B200080E40E9440058093010181110CC082E1A4
:100B30000E946A0580930101811105C08FEF0E9418
:100B40006A05809301010E94620584B1807F84B9A7
:100B500085B1807F85B98AB1837F8AB98BB1837F64
:100B60008BB93E984698089508950C9404070E9406
:100B7000D90B809301010E948C050E948505ADED83
:100B8000B1E0EBEEF1E08EE08E0F11921D928E132C
:100B9000FCCF0C94DF080E94D90B809301010E94C6
:100BA0008C050E948505ADEDB1E0EBEEF1E08EE045
:100BB0008E0F11921D928E13FCCF0895BF92CF928B
:100BC000DF92EF92FF920F931F93CF93DF93809169
:100BD0000101882379F08091DC018F5F8093DC0133
:100BE000811108C00E94D90B80930101811102C0BC
:100BF0000E946B0B0DED11E0C0E0D0E0EE24E39419
:100C0000F12CDD24D39495E0C92EC730D10500F531
:100C10008091010181113CC080E40E9440058093D5
:100C20000101811112C082E10E946A0580930101D5
:100C300081110BC0C7010C2E01C0880F0A94EAF77E
:100C400080950E946A05809301010E94620520C080
:100C5000CA30A1F028F4C83059F0C93061F005C09D
:100C6000CC3089F070F0CD3089F0209A289810C0EF
:100C7000219A29980DC0229A2A980AC0239A2B9863
:100C800007C0529A01C0539A5B9802C03E9A469898
:100C900080EA8A95F1F7C730D10518F580910101F6
:100CA000811144C080E40E944005809301018823A3
:100CB00011F0B12C12C083E10E946A0580930101FA
:100CC0008111F7CF81E40E944005809301018111D9
:100CD000F0CF0E947B05B82EB0940E9462058B2D48
:100CE00026C08FB181708D25799902C092E001C034
:100CF00090E0892B7C9902C024E001C020E0822B87
:100D00007D9902C028E001C020E0822B7E9902C0BC
:100D100090E101C090E0892B9FB19095991F992790
:100D2000991F9295990F907E892B01C080E0F80160
:100D30009081981719F08083C09200010E948C0561
:100D400021960F5F1F4FCE30D10509F05ECF809105
:100D500000018823A1F0815080930001882329F0AD
:100D6000F5E0FA95F1F700000AC0ABEEB1E0EDED69
:100D7000F1E0CF01825F91919D938E13FCCF0E9491
:100D8000E10881E0DF91CF911F910F91FF90EF90EB
:100D9000DF90CF90BF900895E82FF0E0E551FE4F2F
:100DA000808108950895611108C0FC018281882323
:100DB00021F084E991E00E94B40880E090E0089579
:100DC000FB0184342CE5920769F085342CE5920709
:100DD00089F083349C45B1F482818823A1F00E947C
:100DE000531F0EC08281882371F088E591E00E9434
:100DF000B40806C08281882331F081E00E94261069
:100E000080E0089581E008956091800270918102F0
:100E100080918202909183020E94031F56985E98EF
:100E200025982D9826982E9827982F9890E0FC01C9
:100E30003197E730F105A8F4EA5AFF4F0C946F2D73
:100E4000259A2D9A0895259A2D9A269A2E9A0895D4
:100E5000259A2D9A04C0259A2D9A269A2E9A279A79
:100E60002F9A089581E008950C94E0060E94C4181A
:100E70002FEF84E39CE0215080409040E1F700C0D8
:100E800000000C9465200F931F93CF93DF938C0188
:100E9000FC01C081D181CE010E94881DBE010E944B
:100EA000F608EC01B8010E943407882309F456C102
:100EB000B801CE010E941C0B882309F44FC1B80170
:100EC000CE010E940C0D882309F448C1C733FCE50C
:100ED000DF0741F4F8018281882309F43FC10E94B1
:100EE000AE0F3CC1C8338CE5D80708F0A5C0C531AA
:100EF0009CE5D90708F07DC0C230ECE5DE0708F4B8
:100F000052C0F8018281882309F459C00E94741FDD
:100F1000811102C00E94531F0E94871F90E090938E
:100F2000280380932703FE01E350FC45E231F105DD
:100F300030F4E35AFF4F809127030C946F2D80917A
:100F40002703816027C0826025C0846023C0806140
:100F500021C080621FC080641DC080681BC0846087
:100F6000886018C08E7F16C08D7F14C08B7F12C022
:100F70008F7E10C08F7D0EC08F7B0CC08F770AC014
:100F80008B7F877F07C087FB222720F991E092277C
:100F900090FB87F980932703809127030E948B1F82
:100FA0000E94C418DBC0C115FCE5DF0779F0C13031
:100FB000DC45A1F081E08093FB018093FC01C80136
:100FC000DF91CF911F910F910C943207F80182812C
:100FD000882309F4C3C00E943607C0C0F80182818B
:100FE000882309F4BBC08091AD0281608093AD027B
:100FF000B5C0C5339CE5D90741F4F8018281882347
:1010000009F4ACC00E94A110A9C0C633ECE5DE070C
:1010100040F0F8018281882309F4A0C00E94960F55
:101020009DC0C433DC4531F6F8018281882309F480
:1010300095C00E94AB1092C0CB338CE5D80741F429
:10104000F8018281882309F489C00E940C1086C0AF
:10105000CC339CE5D907D8F4F8018281C933FCE58B
:10106000DF0731F4882309F479C00E94DF0F76C0CE
:10107000CA33DC4530F4882309F470C00E94CD0FD8
:101080006DC0882309F46AC00E94F10F67C0CD3398
:10109000ECE5DE0739F5F8018281882361F01092D2
:1010A000FC010E9409209093FA018093F90180E2EB
:1010B0000E941C1653C08091FC0181110FC08091C9
:1010C000F9019091FA010E941520883C910530F4B5
:1010D00087E20E94FA1487E20E94CD1580E20E9406
:1010E00023163CC0CD33FCE5DF0718F5F8018281FB
:1010F000882351F01092FB010E9409209093FA017D
:101100008093F90182E0D4CF8091FB0181110FC05F
:101110008091F9019091FA010E941520883C910577
:1011200030F486E20E94FA1486E20E94CD1582E035
:10113000D6CFC0348CE5D80731F4F80182818823FA
:1011400069F080E009C0C134DC4509F033CFF80113
:101150008281882319F082E00E94562780E0DF9187
:10116000CF911F910F9108950F931F93CF938C01EF
:10117000F80124912223F9F030E0F901E45EFA4FFE
:10118000C491F901E456FA4F2491222359F081EEDB
:101190000E94FA148C2F0E94FA148C2F0E94CD15F5
:1011A00081EE04C08C2F0E94FA148C2F0E94CD1562
:1011B0000F5F1F4FDDCFCF911F910F9108950C94BA
:1011C000C30B0C94B505282F882339F090E02A3002
:1011D00010F44D9608950697089587E290E00895DB
:1011E00008950C94F0080C94F108089596E0799F06
:1011F000F001112494E5899FE00DF11D1124E60F03
:10120000F11DEE0FFF1FEC52FE4F85919491089552
:10121000880F991FFC01E053FE4F8591949108952A
:101220000E94F6080E949E0A811520E49207B0F5FC
:10123000811540E3940708F0DBC0803E9105D8F4A7
:10124000803C910508F069C0883A910578F4853AA8
:10125000910508F065C08130910509F46EC108F46C
:1012600025C18430910508F068C120C18D3B9105EE
:1012700008F461C01BC18F3F910509F048F4803F1D
:10128000910508F0AFC0883E910508F456C10EC123
:10129000811560E2960708F0A7C00895811574E5EE
:1012A0009707D8F4811523E5920708F0DDC0811572
:1012B00041E5940740F4811560E5960708F0A2C067
:1012C0009F70906A0895811572E5970708F0B6C07F
:1012D000982F8827816F906A0895811526E59207D7
:1012E00050F4811545E5940708F0D4C0982F88275D
:1012F000846F906A0895811568E5960708F4D6C052
:10130000811579E5970708F4CAC09C01305621156C
:10131000304208F0CBC09F71C7C0805C910965C0A6
:10132000853A910509F4C5C0863A910509F0C4C013
:1013300082E890E40895883A910509F4C0C0893A9A
:10134000910509F4BFC08A3A910509F4BEC08B3AF1
:10135000910509F4BDC08C3A910509F4BCC08B3BE2
:10136000910509F4BBC08C3B910509F4BAC08D3AD4
:10137000910509F4B9C0803B910509F4B8C08E3AD3
:10138000910509F4B7C08F3A910509F4B6C0813BC5
:10139000910509F4B5C0823B910509F4B4C0833BC3
:1013A000910509F4B3C0843B910509F4B2C0853BB3
:1013B000910509F4B1C0863B910509F4B0C0873BA3
:1013C000910509F4AFC0883B910509F4AEC0893B93
:1013D000910509F4ADC08A3B910509F4ACC080E0E9
:1013E00094E40895906508959F700E9408090895F7
:1013F0009C01332793FF03C0C901986C0895C9016C
:10140000906C0895482F437021E030E002C0220F15
:10141000331F4A95E2F73C68AC0164E05695479566
:101420006A95E1F74370342B8F708695869560E25C
:10143000869FC0011124822B932B0895482F469537
:10144000469570E2479FA00111248370992721E0FF
:1014500030E0B90102C0660F771F8A95E2F7CB0131
:10146000842B952B9C680895482F4695469570E2ED
:10147000479FA00111248370992721E030E0B90132
:1014800002C0660F771F8A95E2F7CB01842B952B5C
:101490009A6808958F719927982F882705C0982FEB
:1014A0008827806F906A08959062089580E090E0A8
:1014B000089581E890E4089583E890E4089582EE29
:1014C00094E4089589EE94E408958AEE94E40895EE
:1014D00085EB94E4089586EB94E4089583EB94E41B
:1014E000089584EB94E4089587EB94E408958CECDC
:1014F00094E408958DEC94E4089583E895E40895C8
:101500008AE895E4089582E995E4089584E995E4EC
:10151000089581E296E4089583E296E4089584E2D2
:1015200096E4089585E296E4089586E296E40895A7
:1015300087E296E408958AE296E408958238910558
:1015400049F1B0F48133910509F458C048F4893267
:10155000910509F44EC08A32910509F454C00895EA
:101560008533910509F440C08933910599F00895B8
:10157000833E910529F138F4803E910591F0823E39
:101580009105A1F00895863E9105F9F0873E9105F9
:1015900031F108952091270320FD3AC021FD38C084
:1015A00008958091270380FD35C032C080912703C4
:1015B00082FF32C08091270384FD30C083EE39C0A2
:1015C0008091270382FD28C0F5CF8091270383FFF8
:1015D00027C08091270384FD21C087EE2AC0809117
:1015E000270383FD1DC0F5CF8091270385FD1AC019
:1015F0001BC08091270385FD17C014C0809127036D
:1016000086FD14C015C08091270386FD11C00EC051
:1016100080EE0FC089E30DC082EE0BC080E009C0F0
:1016200086EE07C089E205C085E303C08AE201C0F7
:1016300081E390E0089508950F931F93CF93FB01EA
:101640002281211102C0C1E041C08C01C0910A0277
:10165000C11125C085319C45B1F70E941B0B81E06B
:1016600080930A020E940920909309028093080245
:101670001092FD011092FF011092FE0110920102E2
:1016800010920002109203021092020210920502C0
:1016900010920402109207021092060217C0809165
:1016A0000802909109020E941520883C910558F685
:1016B0009091FD01E92FF0E0EE0FFF1FE250FE4F89
:1016C000118300839F5F9093FD01C0E08C2FCF9129
:1016D0001F910F91089556985E9825982D982698F9
:1016E0002E9827982F988FEF90E090938900809301
:1016F000880090938B0080938A0090938D00809354
:101700008C00259A2D9A2FEF80E792E0215080409F
:101710009040E1F700C00000269A2E9A2FEF80E754
:1017200092E0215080409040E1F700C00000279AED
:101730002F9A2FEF80E792E0215080409040E1F710
:1017400000C0000025982D982FEF80E792E02150EF
:1017500080409040E1F700C0000026982E982FEFBF
:1017600080E792E0215080409040E1F700C0000007
:1017700027982F9856985E9825982D9826982E98F9
:1017800027982F98089589EA8093800089E08093B4
:10179000810024982C983F988AB18F7C8AB96E98E2
:1017A000479A8BB180638BB9769A0E946B0B0C942D
:1017B000B40580E28093010180910B0281110EC07B
:1017C0000E943A0581E080930B022FEF83ED90E3B6
:1017D000215080409040E1F700C0000080E40E946A
:1017E00040058093010181112EC00E946A058093FB
:1017F0000101811128C00E946A05809301018111B5
:1018000022C08FE30E946A058093010181111BC0F1
:101810000E94620580E40E944005809301018111CD
:1018200012C08CE00E946A058093010181110BC0F7
:101830000E946A0580930101811105C08FE30E9417
:101840006A05809301010E9462058091010108955B
:10185000E0910301F091040180818093DE0281FF19
:1018600003C081EE0E94CD158091DE0285FF03C08A
:1018700085EE0E94CD158091DE0280FF03C080EED0
:101880000E94CD158091DE0284FF03C084EE0E9489
:10189000CD158091DE0282FF03C082EE0E94CD153D
:1018A0008091DE0286FF03C086EE0E94CD158091F6
:1018B000DE0283FF03C083EE0E94CD158091DE021D
:1018C00087FF03C087EE0E94CD1580910C02813006
:1018D000A1F078F0823011F1843049F586EE0E9453
:1018E000FA1486EE0E94CD1588E10E94FA1488E170
:1018F0001CC082EE0E94FA141AC080EE0E94FA14F4
:1019000081EE0E94FA1488E10E94FA1488E10E9494
:10191000CD1581EE0E94CD1580EE07C082EE0E94AB
:10192000FA1487E50E94FA1487E50E94CD158FE32B
:101930009CE90197F1F700C00000089580910C0226
:10194000813029F010F0823041F482EE04C08CE244
:101950000E94FA148CE20E94CD158091DE0281FF74
:1019600003C081EE0E94FA148091DE0285FF03C05D
:1019700085EE0E94FA148091DE0280FF03C080EEA3
:101980000E94FA148091DE0284FF03C084EE0E945C
:10199000FA148091DE0282FF03C082EE0E94FA14E4
:1019A0008091DE0286FF03C086EE0E94FA148091C9
:1019B000DE0283FF03C083EE0E94FA148091DE02F0
:1019C00087FF03C087EE0C94FA140895EF92FF92FC
:1019D0001F93CF93DF937C01CCE0D0E097010C2ED6
:1019E00002C0369527950A94E2F7122F1F70812FB7
:1019F0000E94E3080E94FA14812F0E94E3080E94CB
:101A0000CD152497CC3F8FEFD80741F7DF91CF91C9
:101A10001F91FF90EF900895CF93DF93813020E8DE
:101A2000920768F0FB012281222349F0EC010E9419
:101A3000280CCE019F770E94E60C0E949E0C81E04C
:101A4000DF91CF910895882319F05198599A02C0D7
:101A5000519A59985098589A95E09A95F1F7000044
:101A6000509A589895E09A95F1F70000882311F064
:101A7000519A599885E08A95F1F7000008958BB145
:101A80008C7F8BB95098589A5198599A85E08A95CD
:101A9000F1F7000008958AB18C7F8AB985E08A95B4
:101AA000F1F70000519A599885E08A95F1F7000006
:101AB000509A589885E08A95F1F70000089550985B
:101AC000589A85E08A95F1F700005198599A85E077
:101AD0008A95F1F700000895CF93DF93D82FC8E0DF
:101AE0008D2F80780E94230DDD0FC150C9F780E053
:101AF0000E94230D85E08A95F1F7000085E08A9524
:101B0000F1F7000080E0DF91CF9108952BB1342FE1
:101B1000309523233BB1432B3FB7F894FC01680F6A
:101B2000791FE617F70789F0819198E04BB900001B
:101B300000C087FF2BB9880F000000C000C000C0A4
:101B40002BB900C09A9591F7ECCF3FBF0895AF92A3
:101B5000BF92CF92DF92EF92FF920F931F93CF939A
:101B6000DF938C01EB01CFB6D090BC00F89480914C
:101B7000BC008B7F8093BC000E943F0D0E944B0DE8
:101B800084E80E946C0DCC0FDD1FCC0FDD1F7801A7
:101B90005801AC0EBD1EEA14FB0431F0F70181912F
:101BA0007F010E946C0DF7CF0E945F0DCFBED092D7
:101BB000BC00579A40E8BE01C801DF91CF911F9148
:101BC0000F91FF90EF90DF90CF90BF90AF900C946B
:101BD000860DEF92FF920F931F93CF93DF93E9014E
:101BE000662309F44BC0242F30E0EFEFF0E0E61B52
:101BF000F109B901E69F9001E79F300DF69F300D86
:101C00001124232F8B01031B11095CE3E52EF12C1A
:101C1000B7010E94472DFB01BC01069FC001079F31
:101C2000900D169F900D1124B7010E94472DE230B0
:101C3000F105B1F040F4309779F0319711F5832F29
:101C4000242F461B21C0E430F105A1F068F0359740
:101C5000C1F4842F861B18C0832F262F230F14C096
:101C6000862F830FE42F03C0E42FE61B842F432F1E
:101C70002E2F0AC0842F462F430F06C0842F242FF7
:101C800003C080E020E040E0E42FF0E0ED5CF84F9E
:101C90004491E22FF0E0ED5CF84F9491E82FF0E0F2
:101CA000ED5CF84FE49149839883EA83DF91CF910B
:101CB0001F910F91FF90EF90089588E090E00C94B1
:101CC0007D2DAB01BC0188E090E00C949B2DEFEDE5
:101CD000F2E083E080831092E0028FEF82838383BF
:101CE0006091DF027091E0028091E1029091E20246
:101CF0000C94610E8091DF0280FF06C06FE070E0FF
:101D000087EE92E00C94A70D80E090E0FC01E95191
:101D1000FD4F11821082128204968C339105B1F727
:101D2000EDCF20E030E0F901E951FD4F8183608380
:101D300042832C5F3F4F2C333105A9F70C947A0E68
:101D4000EF92FF920F931F93CF93DF9300D000D0B9
:101D5000CDB7DEB70091DF021091E0022091E102E1
:101D60003091E2020093E3021093E4022093E50233
:101D70003093E6022091DF0220FF21C0042FF62ECF
:101D8000E92E182F9E012F5F3F4F0E94E90D809191
:101D9000E30210FB87F98093E30216958091E40239
:101DA0008078182BE0FA17F91093E402F092E5021C
:101DB0000093E6024B8169818A810E94910E0F9007
:101DC0000F900F900F90DF91CF911F910F91FF9087
:101DD000EF9008958F929F92AF92BF92CF92DF9231
:101DE000EF92FF920F931F93CF93DF93EC01062F97
:101DF000142F8091DF0280FF8CC0982F9E77923045
:101E000021F4CE010E94A00E5AC0E82FE695EF7390
:101E10009EE39E0F9F73943018F41091E2024FC01E
:101E20009AE39E0F9F73993070F4881F8827881F4C
:101E30009091E002292F220FC22FC82B97FB9927E0
:101E400090F9D92F3CC087E28E0F8F738A30B8F596
:101E5000F0E07997E0FD02C021E001C02FEFEE7FB6
:101E6000E45EF94F859194916FE070E00E94472DF8
:101E700026036001279FD00C11244E0188E9881A9F
:101E80008EEF980A87EEE82E82E0F82E98E6A92ECB
:101E9000BB24B394C401B5010E94472D9701412F83
:101EA000602F0E94E90D8C0C9D1C94E0E90EF11C42
:101EB00083E2E81683E0F80669F70E947A0E8091C3
:101EC000DF029C2FC0FB87F98093DF0296958091FB
:101ED000E0028078892BD0FB87F98093E0020093A1
:101EE000E1021093E2026091DF027091E0028091C2
:101EF000E1029091E202DF91CF911F910F91FF904B
:101F0000EF90DF90CF90BF90AF909F908F900C9408
:101F1000610EDF91CF911F910F91FF90EF90DF90B5
:101F2000CF90BF90AF909F908F900895EFEDF2E02B
:101F30002081221F2227221F3091E002432F440FCD
:101F4000842F822B37FB992790F90C9668E671E075
:101F50000E945B2D438162810C94EA0E2091DF0286
:101F6000221F2227221F3091E002432F440F842F8B
:101F7000822B37FB992790F98C3091051CF4845AF9
:101F80009E4F01C00C9768E671E00E945B2D409166
:101F9000E2026091E1020C94EA0EEFEDF2E0808142
:101FA000881F8827881F9091E002292F220F97FB16
:101FB000992790F943816FEF822B0C94EA0EEFED95
:101FC000F2E08081881F8827881F9091E002292FE6
:101FD000220F97FB992790F9438160E0822B0C94A4
:101FE000EA0E4091E202842F90E0843F910514F4C0
:101FF000445F01C04FEF8091DF02881F8827881F50
:102000009091E002292F220F97FB992790F9609178
:10201000E102822B0C94EA0E4091E202842F90E0C0
:102020000C9714F04C5001C040E08091DF02881FF3
:102030008827881F9091E002292F220F97FB99276C
:1020400090F96091E102822B0C94EA0E9091DF02EC
:1020500090FF42C09178811102C0926007C0833224
:1020600010F0946403C08F73880F982B9093DF0255
:102070006091DF027091E0028091E1029091E202B2
:102080000E94610E8091DF02982F9E77923019F4A2
:102090001092220210C0982F96959F732EE3290F5D
:1020A0002F73273120F491E09093220204C0995DB0
:1020B0009F739A3068F3881F8827881F9091E002E9
:1020C000292F220F97FB992790F94091E202609106
:1020D000E102822B0C94EA0E08958091AD0281609A
:1020E0008093AD0281E0809323020E94741F8111CE
:1020F00004C00E94531F0E94670E0E945D0E6093F1
:10210000DF027093E0028093E1029093E2026E7727
:1021100061F40E94670E0E945D0E6093DF0270936F
:10212000E0028093E1029093E20281E08093220238
:102130008091DF0280FF04C086958F730C94261077
:1021400008958091DF0286958F738F5F833208F048
:1021500081E00C9426108091DF02982F909590FBDF
:1021600080F98093DF026091DF027091E00280913C
:10217000E1029091E2020E94610E8091DF0280FFF5
:1021800004C086958F730C942610109222022FEFB4
:1021900080E792E0215080409040E1F700C00000CD
:1021A0000C947A0ECF93C82F809120029091210237
:1021B0000E941520EC2FF0E0E15DF94FE491F0E092
:1021C0008E179F0718F10E94092090932102809397
:1021D0002002E0911F02F0E0ED5CF94F4491809104
:1021E000DF02881F8827881F9091E002292F220F85
:1021F00097FB992790F96091E102822B0E94A00E33
:1022000080911F0290E0019680931F02CF91089564
:10221000CF93C82F80911D0290911E020E9415201D
:10222000EC2FF0E0E45DF94FE491F0E08E179F07AA
:10223000E8F00E94092090931E0280931D024091B5
:10224000E2026091E10280911B0290911C020E94C7
:10225000A00E80911B0290911C02019668E671E02D
:102260000E94472D90931C0280931B02CF910895EA
:10227000CF92DF92FF920F931F93CF93DF93F82EAD
:102280008091190290911A020E941520EF2DE69577
:10229000F0E0E45DF94FE491F0E08E179F07E8F17C
:1022A0000E94092090931A028093190207EE12E00F
:1022B000C0E0D0E088E6C82EDD24D39480911702D8
:1022C000909118028C0F9D1FB6010E94472D980116
:1022D0004091E2026091E1020E94E90D68960C5F74
:1022E0001F4FC83681E0D80749F70E947A0E209127
:1022F000170230911802F0FE0AC0C9010196BE0112
:102300000E94472D909318028093170206C0215017
:1023100031093093180220931702DF91CF911F915A
:102320000F91FF90DF90CF9008958F929F92AF9280
:10233000BF92CF92DF92EF92FF920F931F93CF93B2
:10234000DF93C82F80FF03C0DD24DA9402C0DD24B0
:10235000D39480911502909116020E941520C69583
:10236000EC2FF0E0E75DF94FE491F0E08E179F0766
:1023700008F467C00E94092090931602809315020A
:1023800097EEE92E92E0F92E09EE12E0C0E0D0E0DF
:1023900027E0822E912CF80131971082F7011082EC
:1023A000F801108287E0A82EB12CC12C8091140274
:1023B0008C0D87FD815F082E000C990BC817D9077B
:1023C000E9F42091E2022A9DC0012B9D900D112479
:1023D000B4010E945B2D462F8091DF02881F882761
:1023E000881F9091E002592F550F97FB992790F97C
:1023F00097016091E102852B0E94E90DCD0CF1E07F
:10240000AF1AB10899F6219684E0E80EF11C0C5F32
:102410001F4FCF30D10509F0BECF0E947A0E8091B8
:10242000140291E0D91206C0811102C08EE007C0EB
:10243000815005C090E00196BE010E945B2D809303
:102440001402DF91CF911F910F91FF90EF90DF90D9
:10245000CF90BF90AF909F908F9008959F92AF9232
:10246000BF92CF92DF92EF92FF920F931F93CF9381
:10247000DF93CDB7DEB7EC970FB6F894DEBF0FBE93
:10248000CDBF182F80911202909113020E94152047
:10249000E12FF0E0EA5DF94FE491F0E08E179F073D
:1024A00008F495C00E9409209093130280931202B1
:1024B000CE0101967C015E0193E0A90EB11CC12CF6
:1024C000D12C8701F50131971082F7011082F501B7
:1024D0001082912C9091020180911102999E800DA1
:1024E000112487FD04C08F301CF08EE001C080E015
:1024F000082E000C990BC816D906A1F48091DF02B2
:10250000881F8827881F9091E002592F550F97FB4D
:10251000992790F997014091E2026091E102852BA1
:102520000E94E90D9394F7E09F12D4CF8FEFC81A61
:10253000D80A94E0E90EF11CE4E0AE0EB11CFFE015
:10254000CF16D10409F0BECF29EE32E099E0E92E92
:10255000F12C4FE0C42ED12CC701B6010E945B2D97
:10256000D9011197FC01EE0FFF1FEE0FFF1FE00FC7
:10257000F11F81818C93119780818C938281F90165
:102580008083FFEFEF1AFF0A2C5F3F4F88E1E816C8
:10259000F10411F70E947A0E9091020180911102CC
:1025A000913049F48A3F2CF489EF809311028FEF28
:1025B00008C081500AC086313CF085E18093110249
:1025C00081E08093020103C08F5F80931102EC963B
:1025D0000FB6F894DEBF0FBECDBFDF91CF911F9134
:1025E0000F91FF90EF90DF90CF90BF90AF909F90B2
:1025F0000895EF92FF920F931F93CF93DF938091F3
:102600000F02909110020E941520883E9340D0F155
:102610000E9409209093100280930F02C0910D0236
:10262000D0910E022196C170DD27D0930E02C09387
:102630000D0287EEE82E82E0F82E10E008E7812FE9
:102640008695FE01E80FF11DCF0181709927970152
:102650004091E2026091E102FC010E9FC0010F9FD8
:10266000900D11240E94E90D1F5FF4E0EF0EF11CA4
:102670001F3029F7DF91CF911F910F91FF90EF90BD
:102680000C947A0EDF91CF911F910F91FF90EF90F4
:10269000089580912202882391F19091DF02892F81
:1026A00086958F732EE3280F2F73243018F48250F1
:1026B0000C94D2102AE3280F2F73233018F486507D
:1026C0000C94081127E3280F2F73263018F4895033
:1026D0000C94381121E3280F2F73263018F48F50F3
:1026E0000C9495112BE2280F2F73233018F4855189
:1026F0000C942E129E77903311F40C94F9120895D5
:1027000090932902809328020895E0912802F09185
:102710002902309721F00190F081E02D099480E0AA
:102720000895E0912802F0912902309721F002806B
:10273000F381E02D09940895E0912802F091290297
:10274000309721F00480F581E02D099408952091BF
:102750002602309127028217930771F09093270287
:1027600080932602E0912802F0912902309721F00F
:102770000680F781E02D099408952091240230917C
:1027800025028217930771F090932502809324020B
:10279000E0912802F0912902309721F00084F18520
:1027A000E02D0994089508950C94D3130E940020FD
:1027B0000E94B7050E9487200C946D10CF92DF9283
:1027C000EF92FF920F931F93CF93DF93CDB7DEB7B6
:1027D0002B970FB6F894DEBF0FBECDBF0E94DE056B
:1027E0008BE2C82E82E0D82E00E010E0E02E802F91
:1027F0000E94CC06F60141916F01F42EF826B1F447
:102800000F5F1F4F0E30110589F78FEF89838A8381
:102810001B820E9409208160782F9D838C834981CF
:102820005A816B818D810E94BD1440C09091AD0290
:1028300091FF04C08B870E94D2068B8520E030E098
:102840004F2D50E0922FBA01022E02C07595679568
:102850000A94E2F760FF24C02E83EF8221E030E08B
:10286000690102C0CC0CDD1C9A95E2F790E08C2146
:102870009D21892B09F420E028870E94092081608E
:10288000782F9A8789874E815F8168858A850E9423
:10289000BD14F801E55DFD4F8081C826C08206C0E9
:1028A0002F5F3F4F2630310569F6AACF0E941A22CA
:1028B00010912A020E9485131817A1F00E94851317
:1028C00080932A022B960FB6F894DEBF0FBECDBFC1
:1028D000DF91CF911F910F91FF90EF90DF90CF90FC
:1028E0000C94F3082B960FB6F894DEBF0FBECDBF45
:1028F000DF91CF911F910F91FF90EF90DF90CF90DC
:102900000895DC0111962C9111978C91682F70E03D
:1029100041E050E001C0440F8A95EAF712968C918D
:10292000129730E0882329F0809147028823E9F04C
:1029300006C0F901E75CFD4F90819423B1F086E079
:10294000829FF001839FF00D1124E60FF71FEE0F19
:10295000FF1FEB5EFE4F808191818D939C93F90167
:10296000E75CFD4F8081482B06C0F901E75CFD4F15
:1029700040958081482340830895CF93DF93CDB75E
:10298000DEB72B970FB6F894DEBF0FBECDBF942FE6
:102990004F83252F588769877A878B874A855B8580
:1029A000452B21F02F3F09F59F3FF9F4DE011196E9
:1029B00086E0FD0111928A95E9F785E0FE013796E0
:1029C00001900D928A95E1F749815A816B817C8152
:1029D0008D819E810E945C1B2B960FB6F894DEBF02
:1029E0000FBECDBFDF91CF910895CE0107960E9413
:1029F0008114DCCFCF93882309F4CDC0C82F82384F
:102A000059F40E94851381FDC6C089E30E94071E08
:102A10000E94D41E89E30CC0833879F40E94851388
:102A200080FDB9C083E50E94071E0E94D41E83E585
:102A30000E94491ECF910C94D41E843859F40E94F0
:102A4000851382FDA8C087E40E94071E0E94D41E41
:102A500087E4EECF8CEF8C0F813A48F48C2F0E94E4
:102A60005A24811198C08C2F0E94071EE3CF80E268
:102A70008C0F883048F4C77081E001C0880FCA9578
:102A8000EAF70E948D1ED6CF8BE58C0F833078F449
:102A9000C53A29F0C63A31F083E890E005C081E8F4
:102AA00090E002C082E890E0CF910C94A71388E5F3
:102AB0008C0F853108F06FC0C83A61F1C93A69F1ED
:102AC000CA3A71F1CB3A79F1CC3A81F1CB3B89F139
:102AD000CC3B91F1CD3A99F1C03BA1F1CE3AA9F1AD
:102AE000CF3AB1F1C13BB9F1C23BC1F1C33BC9F12E
:102AF000C43BD1F1C53BD9F1C63BE1F1C73BE9F19C
:102B0000C83BF1F1C93BF9F1CA3B09F43FC080E091
:102B100090E03EC082EE90E03BC089EE90E038C08D
:102B20008AEE90E035C085EB90E032C086EB90E015
:102B30002FC083EB90E02CC084EB90E029C087EBA2
:102B400090E026C08CEC90E023C08DEC90E020C09B
:102B500083E891E01DC08AE891E01AC082E991E023
:102B600017C084E991E014C081E292E011C083E2D1
:102B700092E00EC084E292E00BC085E292E008C0D1
:102B800086E292E005C087E292E002C08AE292E02B
:102B9000CF910C94BD13CF910895882309F44BC0B5
:102BA000823859F40E94851381FF45C089E30E9451
:102BB000071E0E94D41E89E30CC0833871F40E9462
:102BC000851380FF38C083E50E94071E0E94D41E33
:102BD00083E50E94491E0C94D41E843859F40E9447
:102BE000851382FF28C087E40E94071E0E94D41E1E
:102BF00087E4EFCF9CEF980F913A58F390E2980F4B
:102C0000983050F4877091E001C0990F8A95EAF7E7
:102C1000892F0E94931EDFCF9BE5980F933020F4FD
:102C200080E090E00C94A713885A853120F480E06E
:102C300090E00C94BD130895882321F00E948D1E0E
:102C40000C94D41E0895882321F00E94931E0C94A6
:102C5000D41E08958F929F92AF92BF92CF92DF922F
:102C6000EF92FF920F931F93CF93DF931F92CDB7F5
:102C7000DEB77C01C72EFC01058102950F70128121
:102C8000112321F069830E94AA1E698169830E9431
:102C9000001E6981882381F0112371F080E2860F84
:102CA000883050F082E00E94E91D0E94001E91E0F1
:102CB000D82ED926698101C0D12CEC2DE295EF7078
:102CC000F0E0E159FF4F0C946F2D8C2D807F0C2D7F
:102CD0000F70882311F00295007F1123C1F00023AB
:102CE00009F49BC180E2860F883010F0611105C0A5
:102CF000802F69830E948D1E04C0802F69830E94EB
:102D00009D1E698169830E94D41E698186C1862FB8
:102D100069830E94CD156981002309F4CCC180E24A
:102D2000860F883010F0611104C0802F0E94931E1E
:102D300003C0802F0E94A31E0E94D41EBCC19C2DE4
:102D4000907F8C2D8F70903211F08295807F66235A
:102D500019F06130B1F01EC0112349F0002309F4CD
:102D600014C1013009F011C10E94BD1EA4C100238D
:102D700019F0013009F49FC189830E94C01E898126
:102D80000AC1112321F0023008F095C1FEC00111E3
:102D900092C101C1112321F0002309F4F6C03DC105
:102DA000002309F4F8C03FC18C2D86958695837069
:102DB00090E0009719F0019761F07DC1112321F097
:102DC000862F9C2D937002C080E090E00E94A71394
:102DD00072C1112321F0862F9C2D937002C080E0D8
:102DE00090E00E94BD1367C1862F112319F00E9445
:102DF000222102C00E948A210E940F225CC18C2DD8
:102E0000837009F052C0111156C1862F82958695A4
:102E10008770880F880F962F9F70892E912CA12C78
:102E2000B12C082E04C0880C991CAA1CBB1C0A9447
:102E3000D2F764FF14C00FE010E020E030E0B901E9
:102E4000A80104C0440F551F661F771F8A95D2F74B
:102E5000CB01BA01609570958095909503C060E0B4
:102E600070E0CB012C2D26952695237030E0223082
:102E7000310569F02330310589F0682979298A29DB
:102E80009B292130310571F00E949F1C14C16829D3
:102E900079298A299B290E94B11C0DC10E949F1C7F
:102EA000C501B4010E948D1C06C1112319F08C2D9F
:102EB000817001C08695882309F4FDC0862F829514
:102EC00086958770880F880F962F9F70892E912C7A
:102ED000A12CB12C082E04C0880C991CAA1CBB1C68
:102EE0000A94D2F764FF14C00FE010E020E030E055
:102EF000B901A80104C0440F551F661F771F8A95AA
:102F0000D2F7CB01BA01609570958095909503C07A
:102F100060E070E0CB012C2D269526952370422F82
:102F200050E04230510569F04330510589F068297D
:102F300079298A299B294130510571F00E94631D2E
:102F4000BAC0682979298A299B290E94751DB3C0B6
:102F50000E94631DC501B4010E94511DACC0862FA3
:102F600090E0FC01E05EF109E531F10508F051C0A7
:102F7000E158FF4F0C946F2D062F0F708C2D8F7121
:102F8000112331F00E94EA1C802F0E941C1693C06E
:102F90000E940B1D802F0E9423168DC0112339F033
:102FA000011189C08C2D8F710E94301D84C00230A8
:102FB00008F081C0F7CF112339F08C2D8F710E945A
:102FC000EA1C79C01123C9F38C2D8F710E940B1D4F
:102FD00072C0112329F08C2D8F710E94D51C6BC0FB
:102FE0000E94D01C68C0112351F01C2D1F71812F2D
:102FF0000E94EA1C63E0812F0E94E01D5CC081E01A
:103000000E94E91D023008F456C082E00E94E91DCA
:1030100052C0112331F0002381F2862F0E94FA144E
:103020004AC0002389F2862F0E94CD1544C04C2D42
:103030004F70C7010E94D3060E94001C3CC0623F33
:1030400099F128F4603F49F0613FE1F020C0643F0E
:10305000A1F050F0653F59F01AC0112339F1909159
:10306000470281E0892706C081E018271DC01111A1
:103070001DC081E08093470219C0111117C0109242
:10308000470214C0002381F0111110C0E8CF0023C3
:1030900059F0862F6983112319F00E94FA1402C097
:1030A0000E94CD15698102C0109347024C2D4F70CC
:1030B000C7010E94F508DD20F1F00E94DC1D80FDB3
:1030C0001AC0F70112820E94D61D0E94EA1CC70195
:1030D0000E9489180E94D61D0F90DF91CF911F91F9
:1030E0000F91FF90EF90DF90CF90BF90AF909F90A7
:1030F0008F900C940B1D0F90DF91CF911F910F912A
:10310000FF90EF90DF90CF90BF90AF909F908F9007
:1031100008950F931F93CF93DF93EC0188819981DA
:103120002B813C81232BB9F09F3F11F48F3F99F005
:10313000CE010E944307882371F0688179818A81DA
:103140000E94D21D8C010E94871D0E948A1CB8011A
:10315000CE010E942A16DF91CF911F910F91089501
:103160000E94AA1E0E94BA1E0E947F1E0E94D41EA8
:103170000E94BF220E940F2280E090E00E94A713CD
:1031800080E090E00C94BD130E949A1E0C94B0183D
:103190000E94C71DE92FE295EF70F0E03297EE3004
:1031A000F105B0F4EC56FF4F0C946F2D803F91F079
:1031B00018F4803E68F40EC0843F51F40BC0803E8A
:1031C00048F0813F29F406C093FB882780F90895D1
:1031D00080E0089581E00895CF93DF9300D000D080
:1031E0001F92CDB7DEB70F900F900F900F900F90FA
:1031F000DF91CF910895CF93DF9300D000D000D01E
:10320000CDB7DEB726960FB6F894DEBF0FBECDBFA2
:10321000DF91CF9108951F93CF93DF93C091480220
:1032200016E080914902C81799F0D0E01C9FF00188
:103230001D9FF00D1124E65BFD4F4081518162819D
:103240007381848195810E94FB182196C770E9CF14
:10325000DF91CF911F91089540917A0250917B02A6
:1032600060917C0270917D0280917E0290917F023C
:103270000C94FB1880917F0282958F7009F054C0E6
:1032800080917C02882309F44FC080914802A0916C
:10329000490260917A0270917B0240917D025091C7
:1032A0007E02B6E08A1709F43FC090E0411551054F
:1032B000C1F17F3F11F46F3FA1F1B89FF001B99FB9
:1032C000F00D1124E65BFD4F218172132AC020818D
:1032D000621327C02281211124C023813481241745
:1032E000350710F421503109241B350B283C3105DA
:1032F000C0F420917F022F70206120937F0226E08E
:10330000289FF001299FF00D1124E15BFD4F808182
:103310008F70806180838AE792E00E9489180C9404
:103320000B1901968770BECF0895CF92DF92EF926E
:10333000FF920F931F93CF93DF93CDB7DEB76297C2
:103340000FB6F894DEBF0FBECDBF8C0185E0F8014B
:10335000DE011D9601900D928A95E1F7D8014C91FE
:1033600011965C91119712966C9112971396CD90CD
:10337000DC90149730917A0270917B0280917D02EB
:1033800090917E02009709F46BC17F3F19F43F3F93
:1033900009F466C1E0907C02EE2009F4C0C02091DF
:1033A0007F02C816D90628F0F601E81BF90BCF01F9
:1033B00004C0809590958C0D9D1DFF24F394883C4E
:1033C000910578F0F12C207F09F0C6C07C2DD98AB8
:1033D000C88A89890E94EC188AE792E00E948918BD
:1033E000B1C0822F807F09F046C0751314C034131A
:1033F00012C0611110C02F70206120937F020E94C3
:103400002C198AE792E00E94891880917F02D801E6
:1034100015968C932EC0CD2819F15F3F11F44F3FC4
:10342000F9F0F62E61111CC08091480220914902EA
:1034300036E0821709F45AC090E0389FF001399FB6
:10344000F00D1124E65BFD4F7181571306C07081AA
:10345000471303C07281711103C001968770E9CFD1
:10346000F62E662309F418C180917F028160809353
:103470007F02F12C11C1751308C0341306C061110D
:1034800004C080917F02D801C3C04D875E878D85BF
:103490009E856A8B0E94C8186A898823E1F1662399
:1034A000D1F120917F02822F82958F7090E0029758
:1034B00074F080917A0290917B0298878F831986AD
:1034C000DB86CA862C87CE0107960E94891886E083
:1034D000F801AAE7B2E001900D928A95E1F70E9407
:1034E0003A190E942C19FF24F394D6C04D875E87A9
:1034F0008D859E850E94C71D292F22952F7030E053
:10350000223031050CF0BCC09F7009F0B6C0805E5F
:10351000883008F4C1C0C8010E948918E4CFC816D9
:10352000D90608F453C0F601E81BF90BCF01883C1B
:10353000910508F450C0F12C7C2DD98AC88A89895C
:103540000E94EC18EAE7F2E086E0DF011D928A951E
:10355000E9F70E942C19A0C0751314C0341312C0CF
:10356000611110C080917F02F8018583C8010E941B
:10357000891886E0EAE7F2E0DF011D928A95E9F713
:10358000FE2C8AC04D875E878D859E856A8B0E9442
:10359000C8186A89882309F4BECF662309F4BBCF13
:1035A00020917F02822F82958F7090E002970CF419
:1035B0008ECF80917A0290917B029A8389831B82BD
:1035C000DD82CC822E83CE0101967FCF80959095AF
:1035D0008C0D9D1DACCFF62E662309F49CCF751380
:1035E0002EC034132CC020917F0220FD1FC0822FDB
:1035F00082958F70D9F0D80115962C9315978F303E
:1036000049F08F5F982F9295907F822F8F70892B32
:1036100015968C93C8010E94891886E0F801AAE7E4
:10362000B2E001900D928A95E1F793CF86E0F80120
:10363000AAE7B2E001900D928A95E1F72DC04D877F
:103640005E878D859E850E94C818811140CF80912C
:103650007F02816080937F02C8010E9489181CC08C
:10366000662309F458CF4D875E878D859E850E941D
:10367000C818882309F44FCF2ACF811148CF0CC036
:10368000243031050CF047CF9F7009F440CFF8018A
:103690009581907F09F03BCF8F2D62960FB6F894FD
:1036A000DEBF0FBECDBFDF91CF911F910F91FF9075
:1036B000EF90DF90CF9008951F93CF93DF93CDB716
:1036C000DEB72C970FB6F894DEBF0FBECDBF4F8389
:1036D000588769877A878B879C87CE0107960E94D7
:1036E0009519882369F08F8198852A853B85232B3E
:1036F000F1F19F3F09F063C08F3F09F060C037C010
:1037000086E0FE013796DE01119601900D928A95B2
:10371000E1F76F817885EA85FB85309741F17F3F3E
:1037200011F46F3F21F12091490230E0C901019667
:10373000877099274091480250E08417950709F453
:1037400047C069837A83FD83EC8396E0929FD00122
:10375000939FB00D1124A65BBD4FFE0131960190E1
:103760000D929A95E1F7809349020E940B1916E099
:1037700080914802909149028917C1F1189FC001B8
:103780001124865B9D4F0E949519882379F1E09161
:1037900048021E9FF0011124E65BFD4F40815181DC
:1037A00062817381848195810E94FB188091480217
:1037B00090E001968770992780934802D9CF4F8176
:1037C000588569857A858B859C850E94FB18CFCFAB
:1037D0000E94C4181092490210924802EAE7F2E0EF
:1037E00086E0DF011D928A95E9F7C1CF2C960FB6CE
:1037F000F894DEBF0FBECDBFDF91CF911F9108952A
:10380000EF92FF920F931F93CF93DF938C01892B3D
:1038100009F46CC0F12CEE24E394E8012196F80140
:103820008491843740F4843008F051C0813081F0B5
:10383000823019F15BC0853709F444C0A8F19CE7D8
:10384000980F903708F052C08F770E94CD1541C075
:103850000E5F1F4FFE01C49180E28C0F883048F448
:10386000C7708E2D01C0880FCA95EAF70E94AD1E61
:1038700014C08C2F0E94FA142DC00E5F1F4FFE0142
:10388000C49180E28C0F883058F4C7708E2D01C02F
:10389000880FCA95EAF70E94B31E0E94D41E1AC070
:1038A0008C2F0E94CD1516C00E5F1F4FFE01C491D4
:1038B000CC2381F08FE99FE00197F1F700C0000071
:1038C000C150F6CF0E5F1F4FFE01F49003C00E945F
:1038D000FA148E018F2D882309F49FCFEFE9FFE0C2
:1038E0003197F1F700C000008150F5CFDF91CF9103
:1038F0001F910F91FF90EF90089508950E947D1CF5
:10390000609384027093850280938602909387026D
:103910000C94B01808950C947E1C0F931F93009183
:103920008402109185022091860230918702602BDB
:10393000712B822B932B1F910F910C947E1C0F9354
:103940001F9300918402109185022091860230918C
:10395000870260237123822393231F910F910C947C
:103960007E1C0F931F930091840210918502209179
:1039700086023091870260277127822793271F9143
:103980000F910C947E1C08950E94C31C60938002CA
:103990007093810280938202909383020C94B018FA
:1039A00060E070E0CB010C94C41C0F931F9341E0C6
:1039B00050E060E070E08A019B0104C0000F111F1D
:1039C000221F331F8A95D2F7C901B8011F910F91A9
:1039D0000C94C41C0F931F9341E050E060E070E032
:1039E00004C0440F551F661F771F8A95D2F7809138
:1039F000800290918102A0918202B09183028A019B
:103A00009B01082B192B2A2B3B2BC901B8011F91B5
:103A10000F910C94C41C0F931F9341E050E060E0A1
:103A200070E004C0440F551F661F771F8A95D2F7B8
:103A3000409550956095709580918002909181029B
:103A4000A0918202B09183028A019B01082319236D
:103A50002A233B23C901B8011F910F910C94C41C68
:103A60000F931F9341E050E060E070E004C0440F0A
:103A7000551F661F771F8A95D2F78091800290911B
:103A80008102A0918202B09183028A019B010827E2
:103A900019272A273B27C901B8011F910F910C94C0
:103AA000C41C0F931F9300918002109181022091FA
:103AB000820230918302602B712B822B932B1F91FA
:103AC0000F910C94C41C0F931F93009180021091CE
:103AD000810220918202309183026023712382232C
:103AE00093231F910F910C94C41C0F931F9300916B
:103AF000800210918102209182023091830260271E
:103B00007127822793271F910F910C94C41C08954D
:103B1000CF92DF92EF92FF920F931F93CF93DF9399
:103B20008C01C0908402D0908502E0908602F090D3
:103B300087028091800290918102A0918202B091CF
:103B40008302C82AD92AEA2AFB2ACFE1D0E0D7018A
:103B5000C6010C2E04C0B695A795979587950A9433
:103B6000D2F780FF06C0B8018C2F0E941009019780
:103B700021F4219760F780E001C08C2FDF91CF9175
:103B80001F910F91FF90EF90DF90CF900895CF930A
:103B9000DF93EC010E94881DBE010E941009DF9195
:103BA000CF910895CB010E94C71D0895809188028E
:103BB00085958595859508958091880287700895EB
:103BC00098E0899F90011124262B209388020C9461
:103BD000EA1C209188028095822380938802982F86
:103BE000977069F430E0482F082E000C550B24170D
:103BF000350729F08595859585950C940B1D0895BD
:103C000090918802977081E009F480E00895909186
:103C10001401992321F09091270397FD09C0209169
:103C2000030130910401F90132969FEF40E01FC07B
:103C3000982F9695969596959F3150F5E0910301B2
:103C4000F0910401E90FF11D877021E030E0A90136
:103C500002C0440F551F8A95E2F7CA019181892B52
:103C6000818308959F3F39F04F5F4E3141F051916C
:103C70005813F8CF0DC05111F7CF942FF5CF9F3FB8
:103C800039F0F901E90FF11D97FDFA958283089546
:103C9000089590911401992321F09091270397FDA5
:103CA00009C02091030130910401F9013296205E90
:103CB0003F4F1FC0982F9695969596959F31F0F49B
:103CC000E0910301F0910401E90FF11D877021E0FB
:103CD00030E0A90102C0440F551F8A95E2F7CA01DE
:103CE000809591818923818308953196E217F307A6
:103CF00029F090819813F9CF1082F7CF089581E0D1
:103D000090E0E0910301F0910401E80FF91F1082A7
:103D1000019680329105A9F708959091AC02892B04
:103D20008093AC02089580959091AC028923809392
:103D3000AC0208951092AC0208959091AB02892BC9
:103D40008093AB02089580959091AB028923809374
:103D5000AB0208951092AB0208959091AA02892BAC
:103D60008093AA02089580959091AA028923809356
:103D7000AA0208951092AA020895809389020895D4
:103D80001092890208958091030190910401FC0131
:103D900031969C01205E3F4F80E0919191118F5FA1
:103DA000E217F307D1F70895E0910301F0910401C0
:103DB0008091AC028083E0910301F0910401908135
:103DC0008091AB02892B8083E0910301F091040183
:103DD00090818091AA02892B808380918902882317
:103DE00061F0E0910301F09104019081892B8083BF
:103DF0000E94C31E8111109289028091030190914B
:103E000004010C949113CF92DF92EF92FF926C0118
:103E1000EE24FF24C114D104E104F10421F0C70110
:103E2000B60120E101C020E0C72ED82EE92EFF24E4
:103E3000C114D104E104F10419F0285FC701B601EF
:103E40006B017C0154E0F694E794D794C7945A959B
:103E5000D1F7C114D104E104F10419F02C5FC701BA
:103E6000B6016B017C0142E0F694E794D794C794C5
:103E70004A95D1F7C114D104E104F10419F02E5F81
:103E8000C701B601DC01CB01B695A795979587953B
:103E9000892B8A2B8B2B09F02F5F822FFF90EF90BD
:103EA000DF90CF9008956DEE7EEF80E090E00E946D
:103EB000A72D60E082E090E00E94892D60E083E021
:103EC00090E00E94892D60E084E090E00E94892DBE
:103ED00060E085E090E00E94892D40E050E0BA016A
:103EE00088E090E00C949B2D80E090E00E94832D70
:103EF00021E08D3E9E4F09F020E0822F089582E060
:103F000090E00C94752D83E090E00C94752D84E086
:103F100090E00C94752D682F84E090E00C94892D2E
:103F200080912D03843039F11092AE0220E488E1B3
:103F300090E00FB6F894A895809360000FBE209390
:103F4000600080E00E94F30883B7817F846083BFB4
:103F500083B7816083BF7894889583B78E7F83BF52
:103F60000FB6F894A89580916000886180936000F6
:103F7000109260000FBE08950895CF930E94CB0564
:103F80000E94DE050E94BC1FC0E08C2F0E94CC0660
:103F9000811104C0CF5FCE30C1F701C081E0CF9165
:103FA00008950E94C4180E9485130C94F3081F9270
:103FB0000F920FB60F9211248F939F93AF93BF93DD
:103FC0008091AE02811113C080912303909124034C
:103FD000A0912503B09126034196A11DB11D8093A8
:103FE000230390932403A0932503B0932603BF914A
:103FF000AF919F918F910F900FBE0F901F901895CA
:1040000082E084BD93E095BD9AEF97BD80936E00EA
:1040100008952FB7F8948091230390912403A091E1
:104020002503B09126032FBF0895CF92DF92EF9220
:10403000FF920F931F932FB7F89440912303509151
:10404000240360912503709126032FBF6A017B0131
:10405000EE24FF248C0120E030E0C016D106E206F9
:10406000F30610F4415051099A01281B390BC9017C
:104070001F910F91FF90EF90DF90CF90089578946B
:104080001F920F920FB60F9211248F939F93AF93AD
:10409000BF938091230390912403A0912503B091B5
:1040A00026030196A11DB11D809323039093240341
:1040B000A0932503B0932603BF91AF919F918F9159
:1040C0000F900FBE0F901F9018950E941829F8941A
:1040D0002FEF87EA91E6215080409040E1F700C041
:1040E000000087E090EBDC01809336039093370368
:1040F000A0933803B09339039CE088E10FB6F8949D
:10410000A895809360000FBE90936000FFCF0E943F
:10411000741F811102C00E94531F0E947F1F809351
:10412000AD020E94871F90E090932803809327039D
:104130000E94831F682F70E080E090E00C948B1C3D
:104140008091B20280FF0BC06091080185E0689FFA
:10415000B001112475956795759567952BC081FF02
:1041600009C06091080185E0689FB0011124759530
:10417000679520C082FF07C06091080185E0689FB5
:10418000B001112417C09091B3029923D1F060912E
:104190000701961788F72091080185E0289F900174
:1041A0001124929FA001939F500D112470E0CA0129
:1041B0000E945B2D6038710540F46115710539F07E
:1041C00002C065E070E0862F08958FE7089581E0D2
:1041D00008958091B20280FF08C06091060170E0EE
:1041E000759567957595679521C081FF06C06091AB
:1041F000060170E07595679519C082FF04C0609153
:10420000060170E010C09091B3029923C1F0609153
:1042100005019617A0F780910601899FC00111241E
:1042200070E00E945B2D6038710528F461157105FE
:1042300021F0862F08958FE7089581E0089561E0C9
:1042400070E0F4CF803F21F40E94A020819504C04B
:10425000813F29F40E94A0208093B6020895823FF6
:1042600021F40E94A020819504C0833F29F40E947C
:10427000A0208093B5020895893F19F40E94E92097
:1042800005C08A3F31F40E94E92081958093B702EE
:1042900008958B3F21F40E94E920819504C08C3F52
:1042A00029F40E94E9208093B8020895843F21F404
:1042B0008091B402816017C0853F21F48091B402DF
:1042C000826011C0863F21F48091B40284600BC0EB
:1042D000873F21F48091B402886005C0883F31F4A3
:1042E0008091B40280618093B40208958D3F21F4DF
:1042F0008091B20281600BC08E3F21F48091B202A6
:10430000826005C08F3F29F48091B202846080935F
:10431000B2020895803F39F48091B60287FF6CC0E5
:104320001092B60269C0813F29F48091B602181636
:10433000BCF362C09091B502823F29F497FF5CC044
:104340001092B50259C0833F19F41916CCF354C02A
:10435000893F41F48091B70218160CF04DC01092BD
:10436000B7024AC08A3F29F48091B70287FF44C050
:10437000F6CF8B3F39F48091B80287FF3DC0109291
:10438000B8023AC08C3F29F48091B8021816BCF3E9
:1043900033C0843F21F48091B4028E7F17C0853FE3
:1043A00021F48091B4028D7F11C0863F21F4809169
:1043B000B4028B7F0BC0873F21F48091B402877FCA
:1043C00005C0883F31F48091B4028F7E8093B4029F
:1043D00013C08D3F21F48091B2028E7F0BC08E3FBF
:1043E00021F48091B2028D7F05C08F3F29F4809126
:1043F000B2028B7F8093B2028091B50281110EC010
:104400008091B60281110AC08091B702811106C065
:104410008091B802811102C01092B302089584EB1A
:1044200092E00E949C130E9409209093B002809316
:10443000AF0208951F93CF93DF938091AF029091C5
:10444000B0020E941520AC019091B302992321F093
:104450002091090130E006C02091B1028AE0289F36
:10446000900111244217530708F485C08091B502CA
:10447000C091B602D091B7021091B802811107C065
:10448000C11175C0D11173C0111171C074C09F3FAB
:1044900019F09F5F9093B302181624F40E94A02095
:1044A0008093B5028091B50287FF05C00E94A020CD
:1044B00081958093B5021C1624F40E94A02080935D
:1044C000B6028091B60287FF05C00E94A0208195A8
:1044D0008093B6026091B502662331F1C091B602B5
:1044E000CC2311F1062E000C770B880B990B0E9440
:1044F0004E2C23E333E343E35FE30E94B22C0E949C
:10450000162C6093B5026C2FCC0F770B880B990B90
:104510000E944E2C23E333E343E35FE30E94B22C7B
:104520000E94162C6093B6021D1624F40E94E92006
:104530008093B7028091B70287FF05C00E94E920EF
:1045400081958093B702111624F40E94E92080938C
:10455000B8028091B80287FF05C00E94E9208195CA
:104560008093B802DF91CF911F910C940F229F3F4F
:1045700009F08FCF97CFDF91CF911F910895E4EB92
:10458000F2E085E0DF011D928A95E9F71092B3020F
:104590001092B2020895833081F128F4813059F0ED
:1045A0008230D1F00895853009F449C0B8F18630E1
:1045B00009F456C008958091B102262F30E0280FEB
:1045C000311D2F3F310524F4680F6093B102089527
:1045D0008FEF8093B102089580910901262F30E07A
:1045E000280F311D2F3F310524F4680F6093090116
:1045F00008958FEF80930901089580910801262F77
:1046000030E0280F311D2F3F310524F4680F6093EF
:10461000080108958FEF80930801089580910701A4
:10462000262F30E0280F311D2F3F310524F4680F6D
:104630006093070108958FEF80930701089580919B
:104640000601262F30E0280F311D2F3F310524F4BD
:10465000680F6093060108958FEF80930601089517
:1046600080910501262F30E0280F311D2F3F3105A5
:1046700024F4680F6093050108958FEF809305017E
:104680000895833011F128F4813049F0823091F09F
:104690000895853081F120F18630C1F1089580912F
:1046A000B102681720F4861B8093B102089510921E
:1046B000B102089580910901681720F4861B809348
:1046C0000901089510920901089580910801681761
:1046D00020F4861B80930801089510920801089524
:1046E00080910701681720F4861B809307010895C5
:1046F00010920701089580910601681720F4861B27
:104700008093060108951092060108958091050195
:10471000681720F4861B8093050108951092050107
:1047200008950F931F93873208F04DC08E3108F023
:1047300093C0803109F47DC008F5873009F46BC05F
:1047400068F4863009F0A3C08091AD02817F8E7F2E
:104750008093AD0281E08093BA029AC08B3009F455
:104760008FC08E3009F093C08091AD0282FB22276A
:1047700020F991E0922790FB82F964C0863109F418
:104780007FC088F4813109F082C00E94C4188091F2
:10479000270387FB222720F991E0922790FB87F9D6
:1047A000809327036DC0893109F46AC08B3109F009
:1047B0006EC08091AD0281FB222720F991E0922703
:1047C00090FB81F93FC0883309F45AC050F4893214
:1047D00009F458C0853309F455C0873209F452C032
:1047E00056C0833409F44EC028F48A3308F44FC00D
:1047F000895333C0883409F04AC00E94C4180FEFAF
:1048000013ED20E3015010402040E1F700C000000C
:104810000E94652035C08091AD02982F90959170CF
:1048200090FB80F98093AD0291112AC0897F877F28
:1048300010C08091AD0283FB222720F991E09227DE
:1048400090FB83F98093AD029923D1F08091AD0262
:1048500081608093AD0214C08D5141E050E060E072
:1048600070E08A019B0104C0000F111F221F331F3B
:104870008A95D2F7C901B8010E948B1C0E94C41806
:1048800081E006C061E070E080E090E0F5CF80E07C
:104890001F910F91089580E0089580E008958E5152
:1048A0008A3030F4E82FF0E0E354FE4F8081089521
:1048B00080E00895CF93C82F8091BA02813079F0BB
:1048C00018F08230E9F185C0E0910301F091040114
:1048D0008081813169F0823209F07DC009C0E091A8
:1048E0000301F09104018081813111F0823261F481
:1048F0008C2F0E944B24811104C08C2F0E94912385
:104900001DC081E090E01AC08C2F0E944D248111BF
:1049100014C0C43179F048F4CB3079F0C03109F0DB
:104920005EC082E08093BA0208C0C93219F0C83371
:1049300021F055C01092BA0252C081E0817051C07E
:10494000C93279F108F5C43161F1A0F4C73009F03A
:1049500044C01092B10294E1909309018093080140
:1049600085E08093070188E08093060188E28093C8
:10497000050133C082EE8C0F863078F58C2F0E94B3
:104980004F248093B90229C0CE34E9F020F4CB340F
:1049900021F56AE013C0C13579F0C235F1F461E068
:1049A0000DC08091B902882319F01092B90215C088
:1049B00081E08093BA0215C061E006C08091B9021F
:1049C0000E94CB220AC06AE08091B9020E94412372
:1049D00004C01092BA0280E004C081E002C080E00E
:1049E000ADCFCF9108958091DB0208950F931F936F
:1049F000CF93DF9300D01F92CDB7DEB78C010E941A
:104A00006627823011F0853019F593E099831B8376
:104A10000A839093E9008FEF9091E800815095FD13
:104A200006C095ED9A95F1F700008111F5CF8091C0
:104A3000E80085FF0DC040E050E063E070E0CE018B
:104A400001960E9483278091E8008E778093E8008A
:104A50000F900F900F90DF91CF911F910F910895BC
:104A6000CF93DF9300D01F92CDB7DEB720912D03F7
:104A7000243031F522E02983805891099B838A8371
:104A800083E08093E9008FEF9091E800815095FDDD
:104A900006C095ED9A95F1F700008111F5CF809150
:104AA000E80085FF0DC040E050E063E070E0CE011B
:104AB00001960E9483278091E8008E778093E8001A
:104AC0000F900F900F90DF91CF910895CF93DF93C8
:104AD000EC010E946627823011F08530F9F482E003
:104AE0008093E9009FEF8091E800915085FD06C01A
:104AF00085ED8A95F1F700009111F5CF8091E800DE
:104B000085FF0CC040E050E065E070E0CE010E94FF
:104B100083278091E8008E778093E800DF91CF9122
:104B20000895CF93DF93EC010E946627823019F03D
:104B3000853009F047C0809114018823E1F080910D
:104B4000270387FF18C084E08093E9008FEF9091DE
:104B5000E800815095FD06C095E19A95F1F70000B7
:104B60008111F5CF8091E80085FF2CC040E050E036
:104B700060E270E017C081E08093E9008FEF9091D0
:104B8000E800815095FD06C095ED9A95F1F700007B
:104B90008111F5CF8091E80085FF14C040E050E01E
:104BA00068E070E0CE010E9483278091E8008E7754
:104BB0008093E80080E2FE01ABEBB2E001900D9241
:104BC0008A95E1F7DF91CF91089580912C038111AF
:104BD00009C00E9418290E9475298091E200846012
:104BE0008093E200089510922C030895089508958B
:104BF0000C94D11F42E061EC81E00E94922842E0D7
:104C000061EC82E00E94922842E061EC83E00E9425
:104C1000922842E261EC84E00C94922880912F0368
:104C2000833009F455C030F4813071F0823009F4DA
:104C30008EC008958A3009F47AC08B3009F460C0C0
:104C4000893009F09CC020C080912E03813A09F080
:104C500096C08091E800877F8093E80080913203BE
:104C600090913303892B21F460E28BEB92E003C037
:104C700060E080E090E070E00E94CE278091E80044
:104C80008B778093E800089580912E03813209F09C
:104C900076C08091320390913303009719F0039707
:104CA00009F06DC08091E800877F8093E8008091D3
:104CB000E80082FD05C080912D038111F8CF5FC00F
:104CC0008091F1008093DB028091E8008B7753C0E4
:104CD00080912E03813A09F052C080913203909165
:104CE0003303892B09F04BC08091E800877F8093C4
:104CF000E8008091E80080FFFCCF8091140136C06D
:104D000080912E038132D9F5809132039091330343
:104D1000892BA9F58091E800877F8093E8000E94A5
:104D2000C72880913003809314010C94C41880919B
:104D30002E03813221F58091E800877F8093E8007F
:104D40000E94C728809131038093DC0208958091EE
:104D50002E03813AA1F48091E800877F8093E800D8
:104D60008091E80080FFFCCF8091DC028093F1000D
:104D70008091E8008E778093E8000C94C72808950E
:104D800084B7877F84BF0FB6F894A89580916000A0
:104D9000886180936000109260000FBE80E880936D
:104DA0006100109261000E94D4130E9418290E9491
:104DB00075298091E20084608093E20078940E94DB
:104DC000FB2B0E94D6138AE091E00E948013809111
:104DD0002D03853069F40E94901F80912B03882356
:104DE000B1F30E94BD1F882391F30E946D27EFCF7E
:104DF0000E94DE130E944913EACF292F3327233064
:104E00003105C9F064F42130310581F022303105DB
:104E100009F043C08DE690E027E638E042C0213239
:104E20003105F1F02232310541F137C082E190E0E5
:104E300024ED38E036C099278130910541F0823069
:104E4000910541F0892B49F5E3E6F8E005C0EBE474
:104E5000F8E002C0E3E3F8E0849190E09F0121C014
:104E60006430D8F4E62FF0E0EE0FFF1FED52FE4F56
:104E70002081318189E090E014C0643070F470E0EA
:104E8000FB01EE0FFF1FE553FE4F20813181FB0137
:104E9000E953FE4F808190E004C080E090E020E084
:104EA00030E0FA013183208308950895CF93C82F0D
:104EB0000E945527C093DD02CF91089580912D0364
:104EC000843011F081E0089582E008958091DD0240
:104ED000811102C00C945E27089580E189BD82E1B2
:104EE00089BD09B400FEFDCF8091D8008F7D8093ED
:104EF000D8008091E00082608093E0008091E00023
:104F000081FDFCCF0895CF92DF92EF92FF920F9335
:104F10001F93CF93DF93EC018B016A010E94E62877
:104F2000811133C0C114D10439F0F601808191811F
:104F3000081B190BC80FD91FE12CF12C0115110505
:104F400019F18091E80085FD16C08091E8008E7708
:104F50008093E800C114D10449F0F6018081918169
:104F6000E80EF91EF182E08285E00FC00E94E6287B
:104F7000882321F30AC089918093F100015011091F
:104F8000FFEFEF1AFF0ADACF80E0DF91CF911F9198
:104F90000F91FF90EF90DF90CF9008952091340310
:104FA000309135032617370748F06115710539F43C
:104FB0002091E8002E772093E80001C0B90140E07D
:104FC00061157105A9F120912D03222309F443C035
:104FD000253009F442C02091E80023FD40C0209113
:104FE000E80022FD32C02091E80020FFE9CF409187
:104FF000F3002091F20030E0342BFC01CF01611569
:10500000710559F02830310540F481918093F10009
:10501000615071092F5F3F4FF1CF41E028303105DA
:1050200009F040E02091E8002E772093E800C8CFF7
:105030004111C9CF0AC080912D03882361F08530CA
:1050400061F08091E80083FD0AC08091E80082FF52
:10505000F2CF80E0089582E0089583E0089581E032
:10506000089520913403309135032617370748F00F
:105070006115710539F42091E8002E772093E8003E
:1050800001C0B901FC0120E06115710591F1809129
:105090002D03882309F440C0853009F43FC0809176
:1050A000E80083FD3DC08091E80082FD2FC0809123
:1050B000E80080FFE9CF2091F3008091F20090E0BA
:1050C000922B6115710559F08830910540F42491B7
:1050D0002093F1003196615071090196F2CF21E0E1
:1050E000089709F020E08091E8008E778093E8002F
:1050F000CBCF2111CCCF0AC080912D03882361F042
:10510000853061F08091E80083FD0AC08091E8005D
:1051100082FFF2CF80E0089582E0089583E0089551
:1051200081E00895982F973058F59093E9009817EB
:1051300039F07091EC002091ED005091F00003C027
:10514000242F762F50E021FF19C03091EB003E7FD5
:105150003093EB003091ED003D7F3093ED003091C6
:10516000EB0031603093EB007093EC002093ED0086
:105170005093F0002091EE0027FF07C09F5FD3CF30
:105180008F708093E90081E0089580E00895809118
:105190002E0387FF11C08091E80082FD05C0809139
:1051A0002D038111F8CF11C08091E8008B770BC0DF
:1051B00080912D03882349F08091E80080FFF8CF8B
:1051C0008091E8008E778093E80008952091E400B4
:1051D0003091E50095E64091EC00842F817040FF0E
:1051E00022C08091E80080FD1CC080912D0388239F
:1051F00091F0853091F08091EB0085FD10C04091D9
:10520000E4005091E5004217530729F39A019150A9
:1052100011F784E0089582E0089583E0089581E025
:10522000089580E008954091E80042FFDECF0895A0
:105230000E9486290E948E29E0EEF0E08081816044
:105240008083E8EDF0E080818F77808319BCA7ED43
:10525000B0E08C918E7F8C9380818F7E80831092C2
:105260002C0308950F931F93CF93DF930E948629F9
:105270000E948E29C8EDD0E088818F77888388814D
:105280008068888388818F7D888319BC10922D0364
:105290001092290310922B0310922A0300EE10E0C3
:1052A000F80180818B7F808388818160888342E0E0
:1052B00060E080E00E949228E1EEF0E080818E7F45
:1052C0008083E2EEF0E0808181608083808188606D
:1052D0008083F80180818E7F8083888180618883CC
:1052E000DF91CF911F910F910895E8EDF0E080815B
:1052F0008F7E8083E7EDF0E080818160808384E0B1
:1053000082BF81E080932C030C943229E8EDF0E019
:1053100080818E7F80831092E20008951092DA00DF
:105320001092E10008951F920F920FB60F92112470
:105330002F933F934F935F936F937F938F939F939D
:10534000AF93BF93EF93FF938091E10082FF0BC077
:105350008091E20082FF07C08091E1008B7F809303
:10536000E1000E94FA2B8091DA0080FF1FC080913B
:10537000D80080FF1BC08091DA008E7F8093DA0016
:105380008091D90080FF0DC080E189BD82E189BD97
:1053900009B400FEFDCF81E080932D030E94E52536
:1053A00005C019BC10922D030E94F3258091E100E5
:1053B00080FF19C08091E20080FF15C08091E2005B
:1053C0008E7F8093E2008091E20080618093E20012
:1053D0008091D80080628093D80019BC85E08093CA
:1053E0002D030E94F7258091E10084FF30C0809159
:1053F000E20084FF2CC080E189BD82E189BD09B44F
:1054000000FEFDCF8091D8008F7D8093D8008091E1
:10541000E1008F7E8093E1008091E2008F7E809397
:10542000E2008091E20081608093E2008091290394
:10543000882311F084E007C08091E30087FD02C05B
:1054400081E001C083E080932D030E94F8258091C4
:10545000E10083FF29C08091E20083FF25C0809195
:10546000E100877F8093E10082E080932D0310921A
:1054700029038091E1008E7F8093E1008091E2001A
:105480008E7F8093E2008091E20080618093E20051
:1054900042E060E080E00E9492288091F000886005
:1054A0008093F0000E94F625FF91EF91BF91AF919C
:1054B0009F918F917F916F915F914F913F912F912C
:1054C0000F900FBE0F901F9018951F920F920FB65E
:1054D0000F9211242F933F934F935F936F937F937A
:1054E0008F939F93AF93BF93CF93DF93EF93FF93EC
:1054F000C091E900CF708091EC00D82FD17080FD71
:10550000D0E81092E9008091F000877F8093F0004E
:1055100078940E94A92A1092E9008091F000886096
:105520008093F000CD2BCF70C093E900FF91EF91F5
:10553000DF91CF91BF91AF919F918F917F916F91AB
:105540005F914F913F912F910F900FBE0F901F9041
:1055500018951F93CF93DF93CDB7DEB7AA970FB6F9
:10556000F894DEBF0FBECDBFEEE2F3E088E08E0F11
:105570009091F10091938E13FBCF0E940E268091A3
:10558000E80083FF1FC180912E0390912F03492FC4
:1055900050E04A30510508F015C1FA01EE55FF4FB1
:1055A0000C946F2D803881F0823809F00BC1809106
:1055B00032038F708093E9008091EB0085FB882790
:1055C00080F91092E90006C080912A0390912B0384
:1055D000911182609091E800977F9093E80080930A
:1055E000F1001092F100C8C0282F2D7F09F0EAC009
:1055F000882319F0823061F0E5C08091300381305A
:1056000009F0E0C0933009F080E080932B032BC0B9
:1056100080913003811127C0809132038F7009F48B
:10562000D1C08093E9002091EB0020FF1CC0933093
:1056300021F48091EB00806214C09091EB009061A6
:105640009093EB0021E030E0A90102C0440F551F08
:105650008A95E2F74093EA001092EA008091EB000D
:1056600088608093EB001092E9008091E800877FCA
:1056700086C08111A7C0109130031F778091E3008D
:105680008078812B8093E3008091E800877F80936E
:10569000E8000E94C7288091E80080FFFCCF80913D
:1056A000E30080688093E300111102C082E001C032
:1056B00083E080932D0386C08058823008F082C03A
:1056C00080913003909131038C3D53E0950779F53B
:1056D00083E08A838AE289834FB7F894DE011396C8
:1056E00020E03EE051E2E32FF0E050935700E491D8
:1056F00020FF03C0E295EF703F5FEF708E2F90E0C8
:10570000EA3010F0C79601C0C0968D939D932F5F2D
:10571000243149F74FBF8091E800877F8093E800EC
:105720006AE270E0CE0101960E94CE2714C0AE015D
:105730004F5F5F4F609132030E94FD26BC01892BB1
:1057400009F440C09091E800977F9093E800898128
:105750009A810E9431288091E8008B778093E8003D
:1057600031C0803879F58091E800877F8093E80028
:10577000809129038093F1008091E8008E778093D7
:10578000E8000E94C7281EC081111CC09091300300
:105790009230C0F48091E800877F8093E800909376
:1057A00029030E94C72880912903811106C0809196
:1057B000E30087FD02C081E001C084E080932D03F7
:1057C0000E94FA258091E80083FF0AC08091E800DA
:1057D000877F8093E8008091EB0080628093EB00EC
:1057E000AA960FB6F894DEBF0FBECDBFDF91CF9162
:1057F0001F9108950895CF9380912D038823A1F0E0
:10580000C091E900CF709091EC00892F817090FDDC
:1058100080E8C82B1092E9008091E80083FD0E9487
:10582000A92ACF70C093E900CF9108950E941D2C42
:105830006894B1110C94AC2C08950E94912C88F0BE
:105840009F5798F0B92F9927B751B0F0E1F0660F44
:10585000771F881F991F1AF0BA95C9F714C0B13085
:1058600091F00E94AB2CB1E008950C94AB2C672F03
:10587000782F8827B85F39F0B93FCCF386957795B4
:105880006795B395D9F73EF490958095709561959D
:105890007F4F8F4F9F4F0895E89409C097FB3EF4C8
:1058A00090958095709561957F4F8F4F9F4F99236D
:1058B000A9F0F92F96E9BB279395F69587957795EB
:1058C0006795B795F111F8CFFAF4BB0F11F460FFAB
:1058D0001BC06F5F7F4F8F4F9F4F16C0882311F003
:1058E00096E911C0772321F09EE8872F762F05C017
:1058F000662371F096E8862F70E060E02AF09A95B2
:10590000660F771F881FDAF7880F9695879597F9A6
:10591000089557FD9058440F551F59F05F3F71F09F
:105920004795880F97FB991F61F09F3F79F0879506
:105930000895121613061406551FF2CF4695F1DF8F
:1059400008C0161617061806991FF1CF869571051F
:10595000610508940895E894BB2766277727CB0153
:1059600097F908950E94C52C0C94362D0E94282D7D
:1059700038F00E942F2D20F0952311F00C941F2D4C
:105980000C94252D11240C94AC2C0E94892C70F3BE
:10599000959FC1F3950F50E0551F629FF001729FD4
:1059A000BB27F00DB11D639FAA27F00DB11DAA1FE3
:1059B000649F6627B00DA11D661F829F2227B00D30
:1059C000A11D621F739FB00DA11D621F839FA00DBB
:1059D000611D221F749F3327A00D611D231F849F0B
:1059E000600D211D822F762F6A2F11249F57504062
:1059F0009AF0F1F088234AF0EE0FFF1FBB1F661FDD
:105A0000771F881F91505040A9F79E3F510580F0A5
:105A10000C941F2D0C94AC2C5F3FE4F3983ED4F310
:105A2000869577956795B795F795E7959F5FC1F749
:105A3000FE2B880F911D9695879597F9089597F9F4
:105A40009F6780E870E060E008959FEF80EC089524
:105A500000240A941616170618060906089500244D
:105A60000A9412161306140605060895092E0394C7
:105A7000000C11F4882352F0BB0F40F4BF2B11F43B
:105A800060FF04C06F5F7F4F8F4F9F4F0895AA1B29
:105A9000BB1B51E107C0AA1FBB1FA617B70710F019
:105AA000A61BB70B881F991F5A95A9F7809590954B
:105AB000BC01CD01089597FB072E16F4009407D082
:105AC00077FD09D00E94472D07FC05D03EF4909544
:105AD00081959F4F0895709561957F4F0895EE0FC2
